:020000040000FA
:100000000C94A2000C94CA000C94CA000C94CA0070
:100010000C94CA000C94CA000C94CA000C94CA0038
:100020000C94CA000C94CA000C94CA000C94CA0028
:100030000C94CA000C94CA000C94CA000C94CA0018
:100040000C947D020C94CA000C94CA000C94CA0053
:100050000C94CA000C94CA000C94CA000C94CA00F8
:100060000C94CA000C94CA00000000002400270071
:100070002A0000000000250028002B0000000000DE
:1000800023002600290004040404040404040202DA
:100090000202020203030303030301020408102007
:1000A0004080010204081020010204081020000012
:1000B0000008000201000003040700000000000027
:1000C00000007E306D79335B5F707F7B771F0D3D65
:1000D0004F4700000000000000000000000000008A
:1000E000000000000000000000000000000080018F
:1000F00080007E306D79335B5F707F7B0000000095
:10010000000000771F0D3D4F4700370000000E0034
:100110000000670000000000000000000000000078
:10012000000800771F0D3D4F4700370000000E000C
:10013000151D670000000000000000000000000026
:100140000000050511241FBECFEFD8E0DEBFCDBFF4
:1001500011E0A0E0B1E0EEE7FBE002C005900D92F7
:10016000A630B107D9F721E0A6E0B1E001C01D92A9
:10017000A937B207E1F710E0C2EAD0E004C0219746
:10018000FE010E94B705C13AD107C9F70E94C70214
:100190000C94BD050C940000833081F028F481306C
:1001A00099F08230A9F008958730A9F08830C9F01D
:1001B0008430B1F4809180008F7D03C080918000F5
:1001C0008F7780938000089584B58F7784BD0895DC
:1001D00084B58F7DFBCF8091B0008F778093B00086
:1001E00008958091B0008F7DF9CFCF93DF93282FB2
:1001F00030E0F901E255FF4F8491F901E656FF4FD7
:10020000D491F901EA57FF4FC491CC23A1F0811199
:100210000E94CC00EC2FF0E0EE0FFF1FE458FF4FE0
:10022000A591B491EC91ED2381E090E009F480E098
:10023000DF91CF91089580E090E0FACF1F93CF93A4
:10024000DF93282F30E0F901E255FF4F8491F90147
:10025000E656FF4FD491F901EA57FF4FC491CC23E2
:10026000A9F0162F81110E94CC00EC2FF0E0EE0FC8
:10027000FF1FEE58FF4FA591B4918FB7F894EC9102
:10028000111108C0D095DE23DC938FBFDF91CF9191
:100290001F910895DE2BF8CFCF93DF9390E0FC0100
:1002A000E656FF4F24918A579F4FFC018491882383
:1002B000D1F090E0880F991FFC01E859FF4FA591FC
:1002C000B491FC01EE58FF4FC591D49161110EC05D
:1002D0009FB7F8948C91E22FE0958E238C93288120
:1002E000E223E8839FBFDF91CF9108958FB7F89401
:1002F000EC91E22BEC938FBFF6CF3FB7F89480914F
:100300000B0190910C01A0910D01B0910E0126B549
:10031000A89B05C02F3F19F00196A11DB11D3FBF3D
:10032000BA2FA92F982F8827BC01CD01620F711D0C
:10033000811D911D42E0660F771F881F991F4A9506
:10034000D1F708958F929F92AF92BF92CF92DF9292
:10035000EF92FF920E947D014B015C0184E6C82E62
:10036000D12CE12CF12C0E947D01681979098A09B0
:100370009B09683E734081059105A8F321E0C21AEC
:10038000D108E108F10888EE880E83E0981EA11CD0
:10039000B11CC114D104E104F10429F7FF90EF90DE
:1003A000DF90CF90BF90AF909F908F9008952FB720
:1003B000F894609107017091080180910901909172
:1003C0000A012FBF0895CF92DF92EF92FF920F9311
:1003D0001F93CF93DF9300D0CDB7DEB769834A83F5
:1003E000880F991F0091770110917801000F111F5C
:1003F000E1E2F1E09F01215231402017310714F46E
:100400001192F8CF2981FC01EF5DFE4F21838A8193
:10041000808360E0809175010E941E011016110614
:1004200004F501501109F801EF5DFE4FE080D09016
:100430007301C090710188E0F82E6E2D661F66274B
:10044000661F8C2D0E941E01EE0C61E08D2D0E9416
:100450001E0160E08D2D0E941E01FA94F110EDCF77
:10046000DDCF61E0809175010F900F90DF91CF910A
:100470001F910F91FF90EF90DF90CF900C941E0191
:10048000EF92FF920F931F93CF937C018C0183E037
:10049000000F111F8A95E1F70F5C1E4FC1E0F801B4
:1004A00011928F0140E06C2FC7010E94E301CF5FE2
:1004B000C930A9F7CF911F910F91FF90EF90089548
:1004C000209177013091780112161306ACF4603157
:1004D00098F4E62FF0E0EE53FF4FE4914111E0680D
:1004E000DC01AF5DBE4F5096EC9361E0680F4E2F7C
:1004F00090E080E00C94E30108951F920F920FB6F4
:100500000F9211242F933F938F939F93AF93BF9399
:100510008091070190910801A0910901B0910A0111
:100520003091060123E0230F2D3758F50196A11DC8
:10053000B11D209306018093070190930801A093B9
:100540000901B0930A0180910B0190910C01A091D7
:100550000D01B0910E010196A11DB11D80930B01FB
:1005600090930C01A0930D01B0930E01BF91AF9138
:100570009F918F913F912F910F900FBE0F901F90E1
:10058000189526E8230F0296A11DB11DD2CF7894AD
:1005900084B5826084BD84B5816084BD85B5826088
:1005A00085BD85B5816085BD80916E008160809339
:1005B0006E001092810080918100826080938100A2
:1005C00080918100816080938100809180008160B2
:1005D000809380008091B10084608093B10080910D
:1005E000B00081608093B00080917A008460809335
:1005F0007A0080917A00826080937A0080917A00FC
:10060000816080937A0080917A00806880937A007C
:100610001092C10060E083E00E944C0160E084E041
:100620000E944C0160E087E00E944C0161E088E09C
:100630000E944C0161E089E00E944C0160E084E08E
:100640000E941E0160E083E00E941E016091020191
:1006500088E00E941E016091000189E00E941E0155
:1006600080917701909178011816190634F441E0D1
:100670006CE090E080E00E94E3018091770190912E
:1006800078011816190634F443E06AE090E080E03F
:100690000E94E30180917701909178011816190664
:1006A00024F490E080E00E9440020AE010E08FE035
:1006B000882E912C94E8E92E93E0F92E2AE0C22EA0
:1006C000D12C38E5A32E32E0B32E77247394809199
:1006D0000401C0911F01D0912001882309F496C024
:1006E000C0911101D091120184E00E94F5000197A0
:1006F00061F583E00E94F500892B39F50E94A20183
:1007000085E090E0C817D90709F458C084E00E943A
:10071000F5000197C1F184E00E94F500892B09F4EE
:1007200064C084E00E94F500892B09F03FC083E09B
:100730000E94F500892BD1F5D0921001C0920F01D3
:10074000B0922001A0921F0131C084E00E94F50008
:10075000892B79F084E00E94F500892B79F583E0FC
:100760000E94F500892B51F50E94A2018AE090E0D9
:10077000C9CF83E00E94F500019761F70E94A201B2
:100780008FE090E0BFCF83E00E94F500892B19F63F
:100790000E94A20185E090E09093100180930F01E8
:1007A0008CE291E09093200180931F0180910F01D2
:1007B000909110019093120180931101C0911F013B
:1007C000D091200180910401882301F11C161D069F
:1007D0000CF47FC060E089E00E941E0160E088E0C8
:1007E0000E941E017092040174C083E00E94F50013
:1007F000019709F096CF0E94A20190921001809279
:100800000F01F0922001E0921F01D0CF1C161D06AF
:100810000CF70E94D70120911701309118014091E7
:10082000190150911A01621B730B840B950B603AEE
:100830007F4081059105E8F00E94D7016093170180
:10084000709318018093190190931A0166246394A0
:100850008091020190910301892B09F0612C662D92
:1008600088E00E941E01662D70E070930301609382
:1008700002010E94D701209113013091140140918F
:10088000150150911601621B730B840B950B60349C
:100890007F4181059105E8F00E94D7016093130123
:1008A000709314018093150190931601662463944C
:1008B0008091000190910101892B09F0612C662D36
:1008C00089E00E941E01662D70E070930101609323
:1008D000000187E00E94F500019771F40E94A201D7
:1008E00087E00E94F500892BD9F70E94A201809130
:1008F0000401872580930401CE016CE370E00E941F
:100900008F059B01B8010E948F05562E482EC90104
:10091000B8010E948F05382ECE0168E572E00E9472
:100920008F05CB01B8010E948F05682E80910401CC
:1009300081113FC061E085E00E941E0140E0642D0E
:1009400090E080E00E94600240E0652D81E090E050
:100950000E94600241E0632D82E090E00E9460020C
:1009600040E0662D83E090E00E9460020E94D70183
:1009700020911B0130911C0140911D0150911E01DD
:10098000621B730B840B950B683E734081059105C8
:10099000A0F10E94D70160931B0170931C0180930A
:1009A0001D0190931E012197D0932001C0931F0138
:1009B00024C060E085E00E941E0160E088E00E94A3
:1009C0001E0160E089E00E941E0140E0642D90E07D
:1009D00080E00E94600240E0652D81E090E00E948E
:1009E000600241E0632D82E090E00E94600240E0FE
:1009F000662D83E090E00E94600280E090E0892B09
:100A000009F465CE0E94000060CECF93DF93209161
:100A10000F01309110014CE3429FC001439F900DA4
:100A200011249093200180931F010E94D7016093AD
:100A30001B0170931C0180931D0190931E01CBE05C
:100A4000D0E0D0937201C09371018AE090E090935E
:100A50007401809373018CE090E090937601809311
:100A6000750181E090E0909378018093770161E0D7
:100A70008BE00E944C0161E0809173010E944C0167
:100A800061E0809175010E944C0161E080917501E7
:100A90000E941E01D0937201C0937101E1E3F1E065
:100AA000119281E0E137F807D9F7D0E0C0E08091FA
:100AB000770190917801C817D90774F540E06FE08D
:100AC000CE010E94E3018091770190917801C817CF
:100AD000D9072CF447E06BE0CE010E94E30140E02F
:100AE00069E0CE010E94E301809177019091780145
:100AF000C817D9071CF4CE010E94400280917701EB
:100B000090917801C817D9072CF440E06CE0CE0131
:100B10000E94E3012196CBCFDF91CF91089597FBFF
:100B2000072E16F4009407D077FD09D00E94A30584
:100B300007FC05D03EF4909581959F4F08957095E0
:100B400061957F4F0895AA1BBB1B51E107C0AA1FE7
:100B5000BB1FA617B70710F0A61BB70B881F991F5E
:100B60005A95A9F780959095BC01CD010895EE0F97
:100B7000FF1F0590F491E02D0994F894FFCF010038
:040B8000010001006F
:107E0000112484B714BE81FFF0D085E080938100F7
:107E100082E08093C00088E18093C10086E0809377
:107E2000C20080E18093C4008EE0C9D0259A86E02C
:107E300020E33CEF91E0309385002093840096BBD3
:107E4000B09BFECF1D9AA8958150A9F7CC24DD24C4
:107E500088248394B5E0AB2EA1E19A2EF3E0BF2EE7
:107E6000A2D0813461F49FD0082FAFD0023811F036
:107E7000013811F484E001C083E08DD089C08234E0
:107E800011F484E103C0853419F485E0A6D080C0E4
:107E9000853579F488D0E82EFF2485D0082F10E0AE
:107EA000102F00270E291F29000F111F8ED06801E7
:107EB0006FC0863521F484E090D080E0DECF843638
:107EC00009F040C070D06FD0082F6DD080E0C81688
:107ED00080E7D80618F4F601B7BEE895C0E0D1E017
:107EE00062D089930C17E1F7F0E0CF16F0E7DF06D8
:107EF00018F0F601B7BEE89568D007B600FCFDCFD4
:107F0000A601A0E0B1E02C9130E011968C91119780
:107F100090E0982F8827822B932B1296FA010C0160
:107F200087BEE89511244E5F5F4FF1E0A038BF0790
:107F300051F7F601A7BEE89507B600FCFDCF97BE46
:107F4000E89526C08437B1F42ED02DD0F82E2BD052
:107F50003CD0F601EF2C8F010F5F1F4F84911BD097
:107F6000EA94F801C1F70894C11CD11CFA94CF0C13
:107F7000D11C0EC0853739F428D08EE10CD085E9AC
:107F80000AD08FE07ACF813511F488E018D01DD067
:107F900080E101D065CF982F8091C00085FFFCCF94
:107FA0009093C60008958091C00087FFFCCF809118
:107FB000C00084FD01C0A8958091C6000895E0E648
:107FC000F0E098E1908380830895EDDF803219F02E
:107FD00088E0F5DFFFCF84E1DECF1F93182FE3DFCA
:107FE0001150E9F7F2DF1F91089580E0E8DFEE27F6
:047FF000FF270994CA
:027FFE00040479
:00000001FF
