:100000000C94A2000C94BF000C94BF000C94BF0091
:100010000C94BF000C94BF000C94BF000C94BF0064
:100020000C94BF000C94BF000C94BF000C94BF0054
:100030000C94BF000C94BF000C94BF000C94BF0044
:100040000C943D020C94BF000C94BF000C94BF00B4
:100050000C94BF000C94BF000C94BF000C94BF0024
:100060000C94BF000C94BF00000000002400270087
:100070002A0000000000250028002B0000000000DE
:1000800023002600290004040404040404040202DA
:100090000202020203030303030301020408102007
:1000A0004080010204081020010204081020000012
:1000B0000008000201000003040700000000000027
:1000C00000007E306D79335B5F707F7B771F0D3D65
:1000D0004F4700000000000000000000000000008A
:1000E000000000000000000000000000000080018F
:1000F00080007E306D79335B5F707F7B0000000095
:10010000000000771F0D3D4F4700370000000E0034
:100110000000670000000000000000000000000078
:10012000000800771F0D3D4F4700370000000E000C
:10013000151D670000000000000000000000000026
:100140000000280411241FBECFEFD8E0DEBFCDBFD2
:1001500021E0A0E0B1E001C01D92A537B207E1F7B0
:1001600010E0C2EAD0E004C02197FE010E94D00452
:10017000C13AD107C9F70E9487020C94D6040C94A7
:100180000000833081F028F4813099F08230A9F0AA
:1001900008958730A9F08830C9F08430B1F4809197
:1001A00080008F7D03C0809180008F7780938000D6
:1001B000089584B58F7784BD089584B58F7DFBCF76
:1001C0008091B0008F778093B00008958091B00047
:1001D0008F7DF9CFCF93DF93282F30E0F901E255DF
:1001E000FF4F8491F901E656FF4FD491F901EA5788
:1001F000FF4FC491CC23A1F081110E94C100EC2FCC
:10020000F0E0EE0FFF1FE458FF4FA591B491EC9181
:10021000ED2381E090E009F480E0DF91CF91089533
:1002200080E090E0FACF1F93CF93DF93282F30E048
:10023000F901E255FF4F8491F901E656FF4FD49141
:10024000F901EA57FF4FC491CC23A9F0162F811171
:100250000E94C100EC2FF0E0EE0FFF1FEE58FF4FA1
:10026000A591B4918FB7F894EC91111108C0D09575
:10027000DE23DC938FBFDF91CF911F910895DE2B9A
:10028000F8CFCF93DF9390E0FC01E656FF4F249127
:100290008A579F4FFC0184918823D1F090E0880F0A
:1002A000991FFC01E859FF4FA591B491FC01EE584C
:1002B000FF4FC591D49161110EC09FB7F8948C91F6
:1002C000E22FE0958E238C932881E223E8839FBF61
:1002D000DF91CF9108958FB7F894EC91E22BEC93D6
:1002E0008FBFF6CF3FB7F89480910501909106013A
:1002F000A0910701B091080126B5A89B05C02F3F2A
:1003000019F00196A11DB11D3FBFBA2FA92F982F3B
:100310008827BC01CD01620F711D811D911D42E036
:10032000660F771F881F991F4A95D1F708952FB739
:10033000F894609101017091020180910301909104
:1003400004012FBF0895CF92DF92EF92FF920F9397
:100350001F93CF93DF9300D0CDB7DEB769834A8375
:10036000880F991F0091730110917401000F111FE4
:10037000EDE1F1E09F012D5131402017310714F4D8
:100380001192F8CF2981FC01E35EFE4F21838A811F
:10039000808360E0809171010E94130110161106A4
:1003A00004F501501109F801E35EFE4FE080D090A2
:1003B0006F01C0906D0188E0F82E6E2D661F6627D4
:1003C000661F8C2D0E941301EE0C61E08D2D0E94A2
:1003D000130160E08D2D0E941301FA94F110EDCF0E
:1003E000DDCF61E0809171010F900F90DF91CF918F
:1003F0001F910F91FF90EF90DF90CF900C9413011D
:10040000EF92FF920F931F93CF937C018C0183E0B7
:10041000000F111F8A95E1F7035D1E4FC1E0F8013F
:1004200011928F0140E06C2FC7010E94A301CF5FA2
:10043000C930A9F7CF911F910F91FF90EF900895C8
:10044000209173013091740112161306ACF46031DF
:1004500098F4E62FF0E0EE53FF4FE4914111E0688D
:10046000DC01A35EBE4F5096EC9361E0680F4E2F07
:1004700090E080E00C94A30108951F920F920FB6B4
:100480000F9211242F933F938F939F93AF93BF931A
:100490008091010190910201A0910301B0910401AA
:1004A0003091000123E0230F2D3758F50196A11D4F
:1004B000B11D209300018093010190930201A0934C
:1004C0000301B09304018091050190910601A09170
:1004D0000701B09108010196A11DB11D809305018E
:1004E00090930601A0930701B0930801BF91AF91CB
:1004F0009F918F913F912F910F900FBE0F901F9062
:10050000189526E8230F0296A11DB11DD2CF78942D
:1005100084B5826084BD84B5816084BD85B5826008
:1005200085BD85B5816085BD80916E0081608093B9
:100530006E00109281008091810082608093810022
:100540008091810081608093810080918000816032
:10055000809380008091B10084608093B10080918D
:10056000B00081608093B00080917A0084608093B5
:100570007A0080917A00826080937A0080917A007C
:10058000816080937A0080917A00806880937A00FD
:100590001092C10060E083E00E94410160E084E0CD
:1005A0000E94410161E08CE00E94410161E08DE028
:1005B0000E94410160E084E00E94130160E083E05A
:1005C0000E941301609113018CE00E94130160915D
:1005D0000D018DE00E9413018091730190917401CF
:1005E0001816190634F441E06CE090E080E00E94B7
:1005F000A30180917301909174011816190634F4C7
:1006000048E06AE090E080E00E94A30180917301DD
:10061000909174011816190624F490E080E00E946D
:1006200000020AE010E025E0222E312C3CE2E32E0D
:10063000FF24F39490E0C92E90E0D92E82E00E942E
:10064000EA00892B91F10E9472012B013C0184E6A2
:10065000882E912CA12CB12C0E947201641975096D
:1006600086099709683E734081059105A8F321E04A
:10067000821A9108A108B10888EE480E83E0581E3E
:10068000611C711C81149104A104B10429F784E058
:100690000E94EA00892B09F4C0C030921C0120920C
:1006A0001B01F0921A01E09219010E9497018090BB
:1006B000150190901601A0901701B09018016819CB
:1006C00079098A099B09603A7F4081059105D8F034
:1006D0000E94970160931501709316018093170192
:1006E00090931801C1E08091130190911401892B1E
:1006F00009F0C0E06C2F8CE00E941301D0E0D09391
:100700001401C09313010E94970180900F019090F3
:100710001001A0901101B0901201681979098A099D
:100720009B0960347F4181059105D8F00E949701B3
:1007300060930F0170931001809311019093120147
:10074000C1E080910D0190910E01892B09F0C0E06C
:100750006C2F8DE00E941301D0E0D0930E01C09366
:100760000D01C0911901D0911A01CE016CE370E026
:100770000E94A8045B01B8010E94A804962E40E0E4
:10078000682F90E080E00E94200240E0692D81E027
:1007900090E00E942002C501B8010E94A80441E037
:1007A000682F82E090E00E942002CE0168E572E0AE
:1007B0000E94A804CB01B8010E94A80440E0682F61
:1007C00083E090E00E9420020E949701809009013E
:1007D00090900A01A0900B01B0900C016819790962
:1007E0008A099B09683E73408105910578F00E9453
:1007F00097016093090170930A0180930B01909314
:100800000C012197D0931A01C0931901C114D1048E
:1008100009F414CF0E9400000DCF83E00E94EA008B
:10082000892B69F08FE090E090931C0180931B016D
:1008300084E893E090931A018093190136CF8AE0FF
:1008400090E090931C0180931B0188E592E0F2CF29
:10085000CF93DF9320911B0130911C014CE3429F09
:10086000C001439F900D112490931A0180931901A8
:10087000C5E0D0E0D0936E01C0936D0186E090E0BA
:100880009093700180936F0187E090E090937201E4
:100890008093710181E090E09093740180937301E3
:1008A00061E085E00E94410161E080916F010E945A
:1008B000410161E0809171010E94410161E08091FC
:1008C00071010E941301D0936E01C0936D01EDE29E
:1008D000F1E0119281E0ED36F807D9F7D0E0C0E001
:1008E0008091730190917401C817D90774F540E0A5
:1008F0006FE0CE010E94A301809173019091740179
:10090000C817D9072CF447E06BE0CE010E94A30181
:1009100040E069E0CE010E94A301809173019091B3
:100920007401C817D9071CF4CE010E9400028091FF
:10093000730190917401C817D9072CF440E06CE062
:10094000CE010E94A3012196CBCFDF91CF910895D4
:1009500097FB072E16F4009407D077FD09D00E946C
:10096000BC0407FC05D03EF4909581959F4F0895F7
:10097000709561957F4F0895AA1BBB1B51E107C07D
:10098000AA1FBB1FA617B70710F0A61BB70B881F1F
:10099000991F5A95A9F780959095BC01CD010895AE
:1009A000EE0FFF1F0590F491E02D0994F894FFCF0E
:00000001FF
