:020000040000FA
:100000000C949D000C94BA000C94BA000C94BA00A5
:100010000C94BA000C94BA000C94BA000C94BA0078
:100020000C94BA000C94BA000C94BA000C94BA0068
:100030000C94BA000C94BA000C94BA000C94BA0058
:100040000C94C1010C94BA000C94BA000C94BA0040
:100050000C94BA000C94BA000C94BA000C94BA0038
:100060000C94BA000C94BA000000000800020100D1
:100070000003040700000000000000007E306D79DE
:10008000335B5F707F7B771F0D3D4F4700000000A3
:100090000000000000000000000000000000000060
:1000A0000000000000000000800180007E306D79BB
:1000B000335B5F707F7B00000000000000771F0D46
:1000C0003D4F4700370000000E00000067000000B1
:1000D00000000000000000000000000800771F0D75
:1000E0003D4F4700370000000E00151D670000005F
:1000F0000000000000000000000000000000000000
:10010000250028002B0000000000240027002A0002
:1001100004040404040404040202020202020303AD
:1001200003030303010204081020408001020408B5
:100130001020010204081020EF0211241FBECFEF8F
:10014000D8E0DEBFCDBF21E0A0E0B1E001C01D924C
:10015000A736B207E1F710E0CDE9D0E004C021975F
:10016000FE010E948C03CC39D107C9F70E940B0213
:100170000C9492030C94000090E0FC01EC5DFE4FA7
:100180002491805F9E4FFC018491882399F090E038
:10019000880F991FFC01EA5FFE4FA591B491FC0105
:1001A000E450FF4F859194918FB7F894EC91E22B36
:1001B000EC938FBF089590E0FC01E859FF4F249124
:1001C000FC01EC5DFE4F3491FC01E05FFE4FE491D9
:1001D000EE23C9F0222339F0233001F1A8F42130B5
:1001E00019F1223029F1F0E0EE0FFF1FE450FF4F2C
:1001F000A591B4918FB7F894EC91611126C0309518
:100200003E233C938FBF08952730A9F02830C9F0D2
:10021000243049F7809180008F7D03C08091800059
:100220008F7780938000DFCF84B58F7784BDDBCF5D
:1002300084B58F7DFBCF8091B0008F778093B00025
:10024000D2CF8091B0008F7DF9CF3E2BDACFCF9205
:10025000DF92EF92FF920F931F93CF93DF9300D023
:10026000CDB7DEB769834A83880F991F0091650176
:1002700010916601000F111FEFE0F1E09F012F5078
:1002800031402017310714F41192F8CF2981FC0175
:10029000E15FFE4F21838A81808360E0809163016A
:1002A0000E94DB001016110604F501501109F80137
:1002B000E15FFE4FE080D0906101C0905F0188E077
:1002C000F82E6E2D661F6627661F8C2D0E94DB00A0
:1002D000EE0C61E08D2D0E94DB0060E08D2D0E9410
:1002E000DB00FA94F110EDCFDDCF61E08091630186
:1002F0000F900F90DF91CF911F910F91FF90EF9092
:10030000DF90CF900C94DB00EF92FF920F931F933E
:10031000CF937C018C0183E0000F111F8A95E1F7D8
:10032000015E1E4FC1E0F80111928F0140E06C2F79
:10033000C7010E942701CF5FC930A9F7CF911F9154
:100340000F91FF90EF900895209165013091660123
:1003500012161306ACF4603198F4E62FF0E0E4587E
:10036000FF4FE4914111E068DC01A15FBE4F509660
:10037000EC9361E0680F4E2F90E080E00C94270131
:1003800008951F920F920FB60F9211242F933F934F
:100390008F939F93AF93BF93809105019091060136
:1003A000A0910701B09108013091040123E0230FCF
:1003B0002D3758F50196A11DB11D2093040180939E
:1003C000050190930601A0930701B0930801809165
:1003D000000190910101A0910201B09103010196E9
:1003E000A11DB11D8093000190930101A093020112
:1003F000B0930301BF91AF919F918F913F912F9146
:100400000F900FBE0F901F90189526E8230F0296AD
:10041000A11DB11DD2CF789484B5826084BD84B50E
:10042000816084BD85B5826085BD85B5816085BDEF
:1004300080916E00816080936E00109281008091A7
:10044000810082608093810080918100816080932F
:100450008100809180008160809380008091B10054
:1004600084608093B1008091B00081608093B0007F
:1004700080917A00846080937A0080917A00826013
:1004800080937A0080917A00816080937A008091D5
:100490007A00806880937A001092C1008091650193
:1004A000909166011816190634F441E06CE090E072
:1004B00080E00E94270180916501909166011816E5
:1004C000190634F448E06AE090E080E00E942701D9
:1004D00080916501909166011816190624F490E048
:1004E00080E00E9484010CE310E0CAE0D0E088E5DF
:1004F000E82E82E0F82E90E0C92E90E0D92E809070
:100500000D0190900E01C401B8010E9464035B01CB
:10051000BE010E946403762E40E0682F90E080E0E8
:100520000E94A40140E0672D81E090E00E94A401B8
:10053000C501BE010E94640341E0682F82E090E0A3
:100540000E94A401C401B7010E946403CB01BE0153
:100550000E94640340E0682F83E090E00E94A401C1
:100560002FB7F8948091050190910601A0910701A1
:10057000B09108012FBF4091090150910A0160918B
:100580000B0170910C01841B950BA60BB70B883ED9
:100590009340A105B105E0F02FB7F89480910501D3
:1005A00090910601A0910701B09108012FBF80939F
:1005B000090190930A01A0930B01B0930C01809163
:1005C0000D0190910E01019790930E0180930D0102
:1005D000C114D10409F493CF0E94000090CFCF93AF
:1005E000DF93CCE0D0E0D0936001C0935F018BE05B
:1005F00090E090936201809361018AE090E0909393
:1006000064018093630181E090E0909366018093A0
:1006100065018CE00E94BC00809161010E94BC00D9
:10062000809163010E94BC0061E0809163010E949F
:10063000DB00D0936001C0935F01EFE1F1E0119224
:1006400081E0EF35F807D9F7D0E0C0E0809165018F
:1006500090916601C817D90774F540E06FE0CE01AC
:100660000E9427018091650190916601C817D90702
:100670002CF447E06BE0CE010E94270140E069E0E6
:10068000CE010E9427018091650190916601C817F3
:10069000D9071CF4CE010E948401809165019091DC
:1006A0006601C817D9072CF440E06CE0CE010E9427
:1006B00027012196CBCF84E893E090930E0180939D
:1006C0000D01DF91CF91089597FB072E16F400944A
:1006D00007D077FD09D00E94780307FC05D03EF4CF
:1006E000909581959F4F0895709561957F4F0895DE
:1006F000AA1BBB1B51E107C0AA1FBB1FA617B70748
:1007000010F0A61BB70B881F991F5A95A9F7809563
:100710009095BC01CD010895EE0FFF1F0590F49157
:08072000E02D0994F894FFCFCD
:107E0000112484B714BE81FFF0D085E080938100F7
:107E100082E08093C00088E18093C10086E0809377
:107E2000C20080E18093C4008EE0C9D0259A86E02C
:107E300020E33CEF91E0309385002093840096BBD3
:107E4000B09BFECF1D9AA8958150A9F7CC24DD24C4
:107E500088248394B5E0AB2EA1E19A2EF3E0BF2EE7
:107E6000A2D0813461F49FD0082FAFD0023811F036
:107E7000013811F484E001C083E08DD089C08234E0
:107E800011F484E103C0853419F485E0A6D080C0E4
:107E9000853579F488D0E82EFF2485D0082F10E0AE
:107EA000102F00270E291F29000F111F8ED06801E7
:107EB0006FC0863521F484E090D080E0DECF843638
:107EC00009F040C070D06FD0082F6DD080E0C81688
:107ED00080E7D80618F4F601B7BEE895C0E0D1E017
:107EE00062D089930C17E1F7F0E0CF16F0E7DF06D8
:107EF00018F0F601B7BEE89568D007B600FCFDCFD4
:107F0000A601A0E0B1E02C9130E011968C91119780
:107F100090E0982F8827822B932B1296FA010C0160
:107F200087BEE89511244E5F5F4FF1E0A038BF0790
:107F300051F7F601A7BEE89507B600FCFDCF97BE46
:107F4000E89526C08437B1F42ED02DD0F82E2BD052
:107F50003CD0F601EF2C8F010F5F1F4F84911BD097
:107F6000EA94F801C1F70894C11CD11CFA94CF0C13
:107F7000D11C0EC0853739F428D08EE10CD085E9AC
:107F80000AD08FE07ACF813511F488E018D01DD067
:107F900080E101D065CF982F8091C00085FFFCCF94
:107FA0009093C60008958091C00087FFFCCF809118
:107FB000C00084FD01C0A8958091C6000895E0E648
:107FC000F0E098E1908380830895EDDF803219F02E
:107FD00088E0F5DFFFCF84E1DECF1F93182FE3DFCA
:107FE0001150E9F7F2DF1F91089580E0E8DFEE27F6
:047FF000FF270994CA
:027FFE00040479
:00000001FF
